{
  "_format": "hh-sol-artifact-1",
  "contractName": "Raffle",
  "sourceName": "contracts/Raffle.sol",
  "abi": [
    {
      "inputs": [
        {
          "internalType": "address",
          "name": "vrfCoordinatorV2",
          "type": "address"
        },
        {
          "internalType": "uint256",
          "name": "entranceFee",
          "type": "uint256"
        },
        {
          "internalType": "bytes32",
          "name": "gasLane",
          "type": "bytes32"
        },
        {
          "internalType": "uint64",
          "name": "subscriptionId",
          "type": "uint64"
        },
        {
          "internalType": "uint32",
          "name": "callbackGasLimi",
          "type": "uint32"
        },
        {
          "internalType": "uint256",
          "name": "interval",
          "type": "uint256"
        }
      ],
      "stateMutability": "nonpayable",
      "type": "constructor"
    },
    {
      "inputs": [
        {
          "internalType": "address",
          "name": "have",
          "type": "address"
        },
        {
          "internalType": "address",
          "name": "want",
          "type": "address"
        }
      ],
      "name": "OnlyCoordinatorCanFulfill",
      "type": "error"
    },
    {
      "inputs": [],
      "name": "Raffle_NotEnoughETHEntered",
      "type": "error"
    },
    {
      "inputs": [],
      "name": "Raffle_NotOpen",
      "type": "error"
    },
    {
      "inputs": [],
      "name": "Raffle_TransferFailed",
      "type": "error"
    },
    {
      "inputs": [
        {
          "internalType": "uint256",
          "name": "currentBalance",
          "type": "uint256"
        },
        {
          "internalType": "uint256",
          "name": "numPlayers",
          "type": "uint256"
        },
        {
          "internalType": "uint256",
          "name": "raffleState",
          "type": "uint256"
        }
      ],
      "name": "Raffle_UpkeepNotNeeded",
      "type": "error"
    },
    {
      "anonymous": false,
      "inputs": [
        {
          "indexed": true,
          "internalType": "address",
          "name": "from",
          "type": "address"
        },
        {
          "indexed": true,
          "internalType": "address",
          "name": "to",
          "type": "address"
        }
      ],
      "name": "OwnershipTransferRequested",
      "type": "event"
    },
    {
      "anonymous": false,
      "inputs": [
        {
          "indexed": true,
          "internalType": "address",
          "name": "from",
          "type": "address"
        },
        {
          "indexed": true,
          "internalType": "address",
          "name": "to",
          "type": "address"
        }
      ],
      "name": "OwnershipTransferred",
      "type": "event"
    },
    {
      "anonymous": false,
      "inputs": [
        {
          "indexed": true,
          "internalType": "address",
          "name": "player",
          "type": "address"
        }
      ],
      "name": "RaffleEnter",
      "type": "event"
    },
    {
      "anonymous": false,
      "inputs": [
        {
          "indexed": true,
          "internalType": "uint256",
          "name": "requestId",
          "type": "uint256"
        }
      ],
      "name": "RequestedRaffleWinner",
      "type": "event"
    },
    {
      "anonymous": false,
      "inputs": [
        {
          "indexed": true,
          "internalType": "address",
          "name": "winner",
          "type": "address"
        }
      ],
      "name": "WinnerPicked",
      "type": "event"
    },
    {
      "inputs": [],
      "name": "acceptOwnership",
      "outputs": [],
      "stateMutability": "nonpayable",
      "type": "function"
    },
    {
      "inputs": [
        {
          "internalType": "bytes",
          "name": "",
          "type": "bytes"
        }
      ],
      "name": "checkUpkeep",
      "outputs": [
        {
          "internalType": "bool",
          "name": "upKeepNeeded",
          "type": "bool"
        },
        {
          "internalType": "bytes",
          "name": "",
          "type": "bytes"
        }
      ],
      "stateMutability": "view",
      "type": "function"
    },
    {
      "inputs": [],
      "name": "enterRaffle",
      "outputs": [],
      "stateMutability": "payable",
      "type": "function"
    },
    {
      "inputs": [],
      "name": "getEntranceFee",
      "outputs": [
        {
          "internalType": "uint256",
          "name": "",
          "type": "uint256"
        }
      ],
      "stateMutability": "view",
      "type": "function"
    },
    {
      "inputs": [],
      "name": "getInterval",
      "outputs": [
        {
          "internalType": "uint256",
          "name": "",
          "type": "uint256"
        }
      ],
      "stateMutability": "view",
      "type": "function"
    },
    {
      "inputs": [],
      "name": "getLatestTimeStamp",
      "outputs": [
        {
          "internalType": "uint256",
          "name": "",
          "type": "uint256"
        }
      ],
      "stateMutability": "view",
      "type": "function"
    },
    {
      "inputs": [],
      "name": "getNumWords",
      "outputs": [
        {
          "internalType": "uint256",
          "name": "",
          "type": "uint256"
        }
      ],
      "stateMutability": "pure",
      "type": "function"
    },
    {
      "inputs": [],
      "name": "getNumberOfPlayers",
      "outputs": [
        {
          "internalType": "uint256",
          "name": "",
          "type": "uint256"
        }
      ],
      "stateMutability": "view",
      "type": "function"
    },
    {
      "inputs": [
        {
          "internalType": "uint256",
          "name": "index",
          "type": "uint256"
        }
      ],
      "name": "getPlayer",
      "outputs": [
        {
          "internalType": "address",
          "name": "",
          "type": "address"
        }
      ],
      "stateMutability": "view",
      "type": "function"
    },
    {
      "inputs": [],
      "name": "getRaffleState",
      "outputs": [
        {
          "internalType": "enum Raffle.RaffleState",
          "name": "",
          "type": "uint8"
        }
      ],
      "stateMutability": "view",
      "type": "function"
    },
    {
      "inputs": [],
      "name": "getRecentWinner",
      "outputs": [
        {
          "internalType": "address",
          "name": "",
          "type": "address"
        }
      ],
      "stateMutability": "view",
      "type": "function"
    },
    {
      "inputs": [],
      "name": "getRequestConfirmations",
      "outputs": [
        {
          "internalType": "uint256",
          "name": "",
          "type": "uint256"
        }
      ],
      "stateMutability": "pure",
      "type": "function"
    },
    {
      "inputs": [],
      "name": "owner",
      "outputs": [
        {
          "internalType": "address",
          "name": "",
          "type": "address"
        }
      ],
      "stateMutability": "view",
      "type": "function"
    },
    {
      "inputs": [
        {
          "internalType": "bytes",
          "name": "performData",
          "type": "bytes"
        }
      ],
      "name": "performUpkeep",
      "outputs": [],
      "stateMutability": "nonpayable",
      "type": "function"
    },
    {
      "inputs": [],
      "name": "pickRandomWinner",
      "outputs": [],
      "stateMutability": "nonpayable",
      "type": "function"
    },
    {
      "inputs": [
        {
          "internalType": "uint256",
          "name": "requestId",
          "type": "uint256"
        },
        {
          "internalType": "uint256[]",
          "name": "randomWords",
          "type": "uint256[]"
        }
      ],
      "name": "rawFulfillRandomWords",
      "outputs": [],
      "stateMutability": "nonpayable",
      "type": "function"
    },
    {
      "inputs": [
        {
          "internalType": "address",
          "name": "to",
          "type": "address"
        }
      ],
      "name": "transferOwnership",
      "outputs": [],
      "stateMutability": "nonpayable",
      "type": "function"
    }
  ],
  "bytecode": "0x6101606040523480156200001257600080fd5b5060405162002147380380620021478339818101604052810190620000389190620004d8565b33806000888073ffffffffffffffffffffffffffffffffffffffff1660808173ffffffffffffffffffffffffffffffffffffffff168152505050600073ffffffffffffffffffffffffffffffffffffffff168273ffffffffffffffffffffffffffffffffffffffff1603620000e4576040517f08c379a0000000000000000000000000000000000000000000000000000000008152600401620000db90620005d5565b60405180910390fd5b816000806101000a81548173ffffffffffffffffffffffffffffffffffffffff021916908373ffffffffffffffffffffffffffffffffffffffff160217905550600073ffffffffffffffffffffffffffffffffffffffff168173ffffffffffffffffffffffffffffffffffffffff16146200016b576200016a816200024360201b60201c565b5b5050508460a081815250508573ffffffffffffffffffffffffffffffffffffffff1660c08173ffffffffffffffffffffffffffffffffffffffff16815250508360e081815250508267ffffffffffffffff166101008167ffffffffffffffff16815250508163ffffffff166101208163ffffffff168152505060006001811115620001fb57620001fa620005f7565b5b600360146101000a81548160ff02191690836001811115620002225762000221620005f7565b5b02179055504260048190555080610140818152505050505050505062000698565b3373ffffffffffffffffffffffffffffffffffffffff168173ffffffffffffffffffffffffffffffffffffffff1603620002b4576040517f08c379a0000000000000000000000000000000000000000000000000000000008152600401620002ab9062000676565b60405180910390fd5b80600160006101000a81548173ffffffffffffffffffffffffffffffffffffffff021916908373ffffffffffffffffffffffffffffffffffffffff1602179055508073ffffffffffffffffffffffffffffffffffffffff1660008054906101000a900473ffffffffffffffffffffffffffffffffffffffff1673ffffffffffffffffffffffffffffffffffffffff167fed8889f560326eb138920d842192f0eb3dd22b4f139c87a2c57538e05bae127860405160405180910390a350565b600080fd5b600073ffffffffffffffffffffffffffffffffffffffff82169050919050565b6000620003a48262000377565b9050919050565b620003b68162000397565b8114620003c257600080fd5b50565b600081519050620003d681620003ab565b92915050565b6000819050919050565b620003f181620003dc565b8114620003fd57600080fd5b50565b6000815190506200041181620003e6565b92915050565b6000819050919050565b6200042c8162000417565b81146200043857600080fd5b50565b6000815190506200044c8162000421565b92915050565b600067ffffffffffffffff82169050919050565b620004718162000452565b81146200047d57600080fd5b50565b600081519050620004918162000466565b92915050565b600063ffffffff82169050919050565b620004b28162000497565b8114620004be57600080fd5b50565b600081519050620004d281620004a7565b92915050565b60008060008060008060c08789031215620004f857620004f762000372565b5b60006200050889828a01620003c5565b96505060206200051b89828a0162000400565b95505060406200052e89828a016200043b565b94505060606200054189828a0162000480565b93505060806200055489828a01620004c1565b92505060a06200056789828a0162000400565b9150509295509295509295565b600082825260208201905092915050565b7f43616e6e6f7420736574206f776e657220746f207a65726f0000000000000000600082015250565b6000620005bd60188362000574565b9150620005ca8262000585565b602082019050919050565b60006020820190508181036000830152620005f081620005ae565b9050919050565b7f4e487b7100000000000000000000000000000000000000000000000000000000600052602160045260246000fd5b7f43616e6e6f74207472616e7366657220746f2073656c66000000000000000000600082015250565b60006200065e60178362000574565b91506200066b8262000626565b602082019050919050565b6000602082019050818103600083015262000691816200064f565b9050919050565b60805160a05160c05160e051610100516101205161014051611a3f620007086000396000818161074b0152610adf015260006109fc015260006109d9015260006109b80152600061097c0152600081816103b801526104b50152600081816103f501526104490152611a3f6000f3fe6080604052600436106100fe5760003560e01c80635f1b0fd8116100955780638da5cb5b116100645780638da5cb5b146102cd57806391ad27b4146102f8578063e55ae4e814610323578063f2fde38b14610360578063fd6673f514610389576100fe565b80635f1b0fd8146102365780636e04ff0d1461026157806379ba50971461029f578063898da229146102b6576100fe565b8063320229eb116100d1578063320229eb1461018c5780634585e33b146101b7578063473f1ddc146101e057806353a2c19a1461020b576100fe565b806309bc33a714610103578063115cbaf51461012e5780631fe543e3146101595780632cfcc53914610182575b600080fd5b34801561010f57600080fd5b506101186103b4565b604051610125919061101b565b60405180910390f35b34801561013a57600080fd5b506101436103dc565b60405161015091906110ad565b60405180910390f35b34801561016557600080fd5b50610180600480360381019061017b9190611261565b6103f3565b005b61018a6104b3565b005b34801561019857600080fd5b506101a1610622565b6040516101ae919061101b565b60405180910390f35b3480156101c357600080fd5b506101de60048036038101906101d99190611318565b61062c565b005b3480156101ec57600080fd5b506101f56106c2565b60405161020291906113a6565b60405180910390f35b34801561021757600080fd5b506102206106ec565b60405161022d919061101b565b60405180910390f35b34801561024257600080fd5b5061024b6106fb565b604051610258919061101b565b60405180910390f35b34801561026d57600080fd5b5061028860048036038101906102839190611476565b610708565b604051610296929190611559565b60405180910390f35b3480156102ab57600080fd5b506102b46107b8565b005b3480156102c257600080fd5b506102cb61094d565b005b3480156102d957600080fd5b506102e2610ab2565b6040516102ef91906113a6565b60405180910390f35b34801561030457600080fd5b5061030d610adb565b60405161031a919061101b565b60405180910390f35b34801561032f57600080fd5b5061034a60048036038101906103459190611589565b610b03565b60405161035791906113a6565b60405180910390f35b34801561036c57600080fd5b50610387600480360381019061038291906115e2565b610b4b565b005b34801561039557600080fd5b5061039e610b5f565b6040516103ab919061101b565b60405180910390f35b60007f0000000000000000000000000000000000000000000000000000000000000000905090565b6000600360149054906101000a900460ff16905090565b7f000000000000000000000000000000000000000000000000000000000000000073ffffffffffffffffffffffffffffffffffffffff163373ffffffffffffffffffffffffffffffffffffffff16146104a557337f00000000000000000000000000000000000000000000000000000000000000006040517f1cf993f400000000000000000000000000000000000000000000000000000000815260040161049c92919061160f565b60405180910390fd5b6104af8282610b6c565b5050565b7f000000000000000000000000000000000000000000000000000000000000000034101561050d576040517f74938f2700000000000000000000000000000000000000000000000000000000815260040160405180910390fd5b6000600181111561052157610520611036565b5b600360149054906101000a900460ff16600181111561054357610542611036565b5b1461057a576040517fd6e19a8d00000000000000000000000000000000000000000000000000000000815260040160405180910390fd5b6002339080600181540180825580915050600190039060005260206000200160009091909190916101000a81548173ffffffffffffffffffffffffffffffffffffffff021916908373ffffffffffffffffffffffffffffffffffffffff1602179055503373ffffffffffffffffffffffffffffffffffffffff167f0805e1d667bddb8a95f0f09880cf94f403fb596ce79928d9f29b74203ba284d460405160405180910390a2565b6000600454905090565b600061064660405180602001604052806000815250610708565b509050806106b55747600280549050600360149054906101000a900460ff16600181111561067757610676611036565b5b6040517fe059521b0000000000000000000000000000000000000000000000000000000081526004016106ac93929190611638565b60405180910390fd5b6106bd61094d565b505050565b6000600360009054906101000a900473ffffffffffffffffffffffffffffffffffffffff16905090565b6000600163ffffffff16905090565b6000600361ffff16905090565b600060606000600360149054906101000a900460ff1660018111156107305761072f611036565b5b6000600181111561074457610743611036565b5b14905060007f000000000000000000000000000000000000000000000000000000000000000060045442610778919061169e565b11905060008060028054905011905060008047119050600084801561079a5750835b80156107a35750825b80156107ac5750815b90505050505050915091565b600160009054906101000a900473ffffffffffffffffffffffffffffffffffffffff1673ffffffffffffffffffffffffffffffffffffffff163373ffffffffffffffffffffffffffffffffffffffff1614610848576040517f08c379a000000000000000000000000000000000000000000000000000000000815260040161083f9061172f565b60405180910390fd5b60008060009054906101000a900473ffffffffffffffffffffffffffffffffffffffff169050336000806101000a81548173ffffffffffffffffffffffffffffffffffffffff021916908373ffffffffffffffffffffffffffffffffffffffff1602179055506000600160006101000a81548173ffffffffffffffffffffffffffffffffffffffff021916908373ffffffffffffffffffffffffffffffffffffffff1602179055503373ffffffffffffffffffffffffffffffffffffffff168173ffffffffffffffffffffffffffffffffffffffff167f8be0079c531659141344cd1fd0a4f28419497f9722a3daafe3b4186f6b6457e060405160405180910390a350565b6001600360146101000a81548160ff0219169083600181111561097357610972611036565b5b021790555060007f000000000000000000000000000000000000000000000000000000000000000073ffffffffffffffffffffffffffffffffffffffff16635d3b1d307f00000000000000000000000000000000000000000000000000000000000000007f000000000000000000000000000000000000000000000000000000000000000060037f000000000000000000000000000000000000000000000000000000000000000060016040518663ffffffff1660e01b8152600401610a3d9594939291906117c7565b6020604051808303816000875af1158015610a5c573d6000803e3d6000fd5b505050506040513d601f19601f82011682018060405250810190610a80919061182f565b9050807fcd6e45c8998311cab7e9d4385596cac867e20a0587194b954fa3a731c93ce78b60405160405180910390a250565b60008060009054906101000a900473ffffffffffffffffffffffffffffffffffffffff16905090565b60007f0000000000000000000000000000000000000000000000000000000000000000905090565b600060028281548110610b1957610b1861185c565b5b9060005260206000200160009054906101000a900473ffffffffffffffffffffffffffffffffffffffff169050919050565b610b53610d9f565b610b5c81610e2f565b50565b6000600280549050905090565b600060028054905082600081518110610b8857610b8761185c565b5b6020026020010151610b9a91906118ba565b9050600060028281548110610bb257610bb161185c565b5b9060005260206000200160009054906101000a900473ffffffffffffffffffffffffffffffffffffffff16905080600360006101000a81548173ffffffffffffffffffffffffffffffffffffffff021916908373ffffffffffffffffffffffffffffffffffffffff160217905550600067ffffffffffffffff811115610c3b57610c3a61111e565b5b604051908082528060200260200182016040528015610c695781602001602082028036833780820191505090505b5060029080519060200190610c7f929190610f5b565b506000600360146101000a81548160ff02191690836001811115610ca657610ca5611036565b5b02179055504260048190555060008173ffffffffffffffffffffffffffffffffffffffff1647604051610cd89061191c565b60006040518083038185875af1925050503d8060008114610d15576040519150601f19603f3d011682016040523d82523d6000602084013e610d1a565b606091505b5050905080610d55576040517fba31c4f300000000000000000000000000000000000000000000000000000000815260040160405180910390fd5b8173ffffffffffffffffffffffffffffffffffffffff167f5b690ec4a06fe979403046eaeea5b3ce38524683c3001f662c8b5a829632f7df60405160405180910390a25050505050565b60008054906101000a900473ffffffffffffffffffffffffffffffffffffffff1673ffffffffffffffffffffffffffffffffffffffff163373ffffffffffffffffffffffffffffffffffffffff1614610e2d576040517f08c379a0000000000000000000000000000000000000000000000000000000008152600401610e249061197d565b60405180910390fd5b565b3373ffffffffffffffffffffffffffffffffffffffff168173ffffffffffffffffffffffffffffffffffffffff1603610e9d576040517f08c379a0000000000000000000000000000000000000000000000000000000008152600401610e94906119e9565b60405180910390fd5b80600160006101000a81548173ffffffffffffffffffffffffffffffffffffffff021916908373ffffffffffffffffffffffffffffffffffffffff1602179055508073ffffffffffffffffffffffffffffffffffffffff1660008054906101000a900473ffffffffffffffffffffffffffffffffffffffff1673ffffffffffffffffffffffffffffffffffffffff167fed8889f560326eb138920d842192f0eb3dd22b4f139c87a2c57538e05bae127860405160405180910390a350565b828054828255906000526020600020908101928215610fd4579160200282015b82811115610fd35782518260006101000a81548173ffffffffffffffffffffffffffffffffffffffff021916908373ffffffffffffffffffffffffffffffffffffffff16021790555091602001919060010190610f7b565b5b509050610fe19190610fe5565b5090565b5b80821115610ffe576000816000905550600101610fe6565b5090565b6000819050919050565b61101581611002565b82525050565b6000602082019050611030600083018461100c565b92915050565b7f4e487b7100000000000000000000000000000000000000000000000000000000600052602160045260246000fd5b6002811061107657611075611036565b5b50565b600081905061108782611065565b919050565b600061109782611079565b9050919050565b6110a78161108c565b82525050565b60006020820190506110c2600083018461109e565b92915050565b6000604051905090565b600080fd5b600080fd5b6110e581611002565b81146110f057600080fd5b50565b600081359050611102816110dc565b92915050565b600080fd5b6000601f19601f8301169050919050565b7f4e487b7100000000000000000000000000000000000000000000000000000000600052604160045260246000fd5b6111568261110d565b810181811067ffffffffffffffff821117156111755761117461111e565b5b80604052505050565b60006111886110c8565b9050611194828261114d565b919050565b600067ffffffffffffffff8211156111b4576111b361111e565b5b602082029050602081019050919050565b600080fd5b60006111dd6111d884611199565b61117e565b90508083825260208201905060208402830185811115611200576111ff6111c5565b5b835b81811015611229578061121588826110f3565b845260208401935050602081019050611202565b5050509392505050565b600082601f83011261124857611247611108565b5b81356112588482602086016111ca565b91505092915050565b60008060408385031215611278576112776110d2565b5b6000611286858286016110f3565b925050602083013567ffffffffffffffff8111156112a7576112a66110d7565b5b6112b385828601611233565b9150509250929050565b600080fd5b60008083601f8401126112d8576112d7611108565b5b8235905067ffffffffffffffff8111156112f5576112f46112bd565b5b602083019150836001820283011115611311576113106111c5565b5b9250929050565b6000806020838503121561132f5761132e6110d2565b5b600083013567ffffffffffffffff81111561134d5761134c6110d7565b5b611359858286016112c2565b92509250509250929050565b600073ffffffffffffffffffffffffffffffffffffffff82169050919050565b600061139082611365565b9050919050565b6113a081611385565b82525050565b60006020820190506113bb6000830184611397565b92915050565b600080fd5b600067ffffffffffffffff8211156113e1576113e061111e565b5b6113ea8261110d565b9050602081019050919050565b82818337600083830152505050565b6000611419611414846113c6565b61117e565b905082815260208101848484011115611435576114346113c1565b5b6114408482856113f7565b509392505050565b600082601f83011261145d5761145c611108565b5b813561146d848260208601611406565b91505092915050565b60006020828403121561148c5761148b6110d2565b5b600082013567ffffffffffffffff8111156114aa576114a96110d7565b5b6114b684828501611448565b91505092915050565b60008115159050919050565b6114d4816114bf565b82525050565b600081519050919050565b600082825260208201905092915050565b60005b838110156115145780820151818401526020810190506114f9565b60008484015250505050565b600061152b826114da565b61153581856114e5565b93506115458185602086016114f6565b61154e8161110d565b840191505092915050565b600060408201905061156e60008301856114cb565b81810360208301526115808184611520565b90509392505050565b60006020828403121561159f5761159e6110d2565b5b60006115ad848285016110f3565b91505092915050565b6115bf81611385565b81146115ca57600080fd5b50565b6000813590506115dc816115b6565b92915050565b6000602082840312156115f8576115f76110d2565b5b6000611606848285016115cd565b91505092915050565b60006040820190506116246000830185611397565b6116316020830184611397565b9392505050565b600060608201905061164d600083018661100c565b61165a602083018561100c565b611667604083018461100c565b949350505050565b7f4e487b7100000000000000000000000000000000000000000000000000000000600052601160045260246000fd5b60006116a982611002565b91506116b483611002565b92508282039050818111156116cc576116cb61166f565b5b92915050565b600082825260208201905092915050565b7f4d7573742062652070726f706f736564206f776e657200000000000000000000600082015250565b60006117196016836116d2565b9150611724826116e3565b602082019050919050565b600060208201905081810360008301526117488161170c565b9050919050565b6000819050919050565b6117628161174f565b82525050565b600067ffffffffffffffff82169050919050565b61178581611768565b82525050565b600061ffff82169050919050565b6117a28161178b565b82525050565b600063ffffffff82169050919050565b6117c1816117a8565b82525050565b600060a0820190506117dc6000830188611759565b6117e9602083018761177c565b6117f66040830186611799565b61180360608301856117b8565b61181060808301846117b8565b9695505050505050565b600081519050611829816110dc565b92915050565b600060208284031215611845576118446110d2565b5b60006118538482850161181a565b91505092915050565b7f4e487b7100000000000000000000000000000000000000000000000000000000600052603260045260246000fd5b7f4e487b7100000000000000000000000000000000000000000000000000000000600052601260045260246000fd5b60006118c582611002565b91506118d083611002565b9250826118e0576118df61188b565b5b828206905092915050565b600081905092915050565b50565b60006119066000836118eb565b9150611911826118f6565b600082019050919050565b6000611927826118f9565b9150819050919050565b7f4f6e6c792063616c6c61626c65206279206f776e657200000000000000000000600082015250565b60006119676016836116d2565b915061197282611931565b602082019050919050565b600060208201905081810360008301526119968161195a565b9050919050565b7f43616e6e6f74207472616e7366657220746f2073656c66000000000000000000600082015250565b60006119d36017836116d2565b91506119de8261199d565b602082019050919050565b60006020820190508181036000830152611a02816119c6565b905091905056fea2646970667358221220782b2ffd726e41de5edd5d876a6d472e4c5f3265fb760409f3cff144a4f95a1a64736f6c63430008110033",
  "linkReferences": {},
  "deployedLinkReferences": {}
}