{
  "address": "0x895323cFe0E53A5d628f9715F28185333f69C644",
  "abi": [
    {
      "inputs": [
        {
          "internalType": "address",
          "name": "vrfCoordinatorV2",
          "type": "address"
        },
        {
          "internalType": "uint256",
          "name": "entranceFee",
          "type": "uint256"
        },
        {
          "internalType": "bytes32",
          "name": "gasLane",
          "type": "bytes32"
        },
        {
          "internalType": "uint64",
          "name": "subscriptionId",
          "type": "uint64"
        },
        {
          "internalType": "uint32",
          "name": "callbackGasLimi",
          "type": "uint32"
        },
        {
          "internalType": "uint256",
          "name": "interval",
          "type": "uint256"
        }
      ],
      "stateMutability": "nonpayable",
      "type": "constructor"
    },
    {
      "inputs": [
        {
          "internalType": "address",
          "name": "have",
          "type": "address"
        },
        {
          "internalType": "address",
          "name": "want",
          "type": "address"
        }
      ],
      "name": "OnlyCoordinatorCanFulfill",
      "type": "error"
    },
    {
      "inputs": [],
      "name": "Raffle_NotEnoughETHEntered",
      "type": "error"
    },
    {
      "inputs": [],
      "name": "Raffle_NotOpen",
      "type": "error"
    },
    {
      "inputs": [],
      "name": "Raffle_TransferFailed",
      "type": "error"
    },
    {
      "inputs": [
        {
          "internalType": "uint256",
          "name": "currentBalance",
          "type": "uint256"
        },
        {
          "internalType": "uint256",
          "name": "numPlayers",
          "type": "uint256"
        },
        {
          "internalType": "uint256",
          "name": "raffleState",
          "type": "uint256"
        }
      ],
      "name": "Raffle_UpkeepNotNeeded",
      "type": "error"
    },
    {
      "anonymous": false,
      "inputs": [
        {
          "indexed": true,
          "internalType": "address",
          "name": "from",
          "type": "address"
        },
        {
          "indexed": true,
          "internalType": "address",
          "name": "to",
          "type": "address"
        }
      ],
      "name": "OwnershipTransferRequested",
      "type": "event"
    },
    {
      "anonymous": false,
      "inputs": [
        {
          "indexed": true,
          "internalType": "address",
          "name": "from",
          "type": "address"
        },
        {
          "indexed": true,
          "internalType": "address",
          "name": "to",
          "type": "address"
        }
      ],
      "name": "OwnershipTransferred",
      "type": "event"
    },
    {
      "anonymous": false,
      "inputs": [
        {
          "indexed": true,
          "internalType": "address",
          "name": "player",
          "type": "address"
        }
      ],
      "name": "RaffleEnter",
      "type": "event"
    },
    {
      "anonymous": false,
      "inputs": [
        {
          "indexed": true,
          "internalType": "uint256",
          "name": "requestId",
          "type": "uint256"
        }
      ],
      "name": "RequestedRaffleWinner",
      "type": "event"
    },
    {
      "anonymous": false,
      "inputs": [
        {
          "indexed": true,
          "internalType": "address",
          "name": "winner",
          "type": "address"
        }
      ],
      "name": "WinnerPicked",
      "type": "event"
    },
    {
      "inputs": [],
      "name": "acceptOwnership",
      "outputs": [],
      "stateMutability": "nonpayable",
      "type": "function"
    },
    {
      "inputs": [
        {
          "internalType": "bytes",
          "name": "",
          "type": "bytes"
        }
      ],
      "name": "checkUpkeep",
      "outputs": [
        {
          "internalType": "bool",
          "name": "upKeepNeeded",
          "type": "bool"
        },
        {
          "internalType": "bytes",
          "name": "",
          "type": "bytes"
        }
      ],
      "stateMutability": "view",
      "type": "function"
    },
    {
      "inputs": [],
      "name": "enterRaffle",
      "outputs": [],
      "stateMutability": "payable",
      "type": "function"
    },
    {
      "inputs": [],
      "name": "getEntranceFree",
      "outputs": [
        {
          "internalType": "uint256",
          "name": "",
          "type": "uint256"
        }
      ],
      "stateMutability": "view",
      "type": "function"
    },
    {
      "inputs": [],
      "name": "getLatestTimeStamp",
      "outputs": [
        {
          "internalType": "uint256",
          "name": "",
          "type": "uint256"
        }
      ],
      "stateMutability": "view",
      "type": "function"
    },
    {
      "inputs": [],
      "name": "getNumWords",
      "outputs": [
        {
          "internalType": "uint256",
          "name": "",
          "type": "uint256"
        }
      ],
      "stateMutability": "pure",
      "type": "function"
    },
    {
      "inputs": [],
      "name": "getNumberOfPlayers",
      "outputs": [
        {
          "internalType": "uint256",
          "name": "",
          "type": "uint256"
        }
      ],
      "stateMutability": "view",
      "type": "function"
    },
    {
      "inputs": [
        {
          "internalType": "uint256",
          "name": "index",
          "type": "uint256"
        }
      ],
      "name": "getPlayer",
      "outputs": [
        {
          "internalType": "address",
          "name": "",
          "type": "address"
        }
      ],
      "stateMutability": "view",
      "type": "function"
    },
    {
      "inputs": [],
      "name": "getRaffleState",
      "outputs": [
        {
          "internalType": "enum Raffle.RaffleState",
          "name": "",
          "type": "uint8"
        }
      ],
      "stateMutability": "view",
      "type": "function"
    },
    {
      "inputs": [],
      "name": "getRecentWinner",
      "outputs": [
        {
          "internalType": "address",
          "name": "",
          "type": "address"
        }
      ],
      "stateMutability": "view",
      "type": "function"
    },
    {
      "inputs": [],
      "name": "getRequestConfirmations",
      "outputs": [
        {
          "internalType": "uint256",
          "name": "",
          "type": "uint256"
        }
      ],
      "stateMutability": "pure",
      "type": "function"
    },
    {
      "inputs": [],
      "name": "owner",
      "outputs": [
        {
          "internalType": "address",
          "name": "",
          "type": "address"
        }
      ],
      "stateMutability": "view",
      "type": "function"
    },
    {
      "inputs": [
        {
          "internalType": "bytes",
          "name": "performData",
          "type": "bytes"
        }
      ],
      "name": "performUpkeep",
      "outputs": [],
      "stateMutability": "nonpayable",
      "type": "function"
    },
    {
      "inputs": [],
      "name": "pickRandomWinner",
      "outputs": [],
      "stateMutability": "nonpayable",
      "type": "function"
    },
    {
      "inputs": [
        {
          "internalType": "uint256",
          "name": "requestId",
          "type": "uint256"
        },
        {
          "internalType": "uint256[]",
          "name": "randomWords",
          "type": "uint256[]"
        }
      ],
      "name": "rawFulfillRandomWords",
      "outputs": [],
      "stateMutability": "nonpayable",
      "type": "function"
    },
    {
      "inputs": [
        {
          "internalType": "address",
          "name": "to",
          "type": "address"
        }
      ],
      "name": "transferOwnership",
      "outputs": [],
      "stateMutability": "nonpayable",
      "type": "function"
    }
  ],
  "transactionHash": "0x3044ab06ff7eea3d143487381711182f4c188b8fccefdd2a2ad8765541036529",
  "args": [
    "0x2Ca8E0C643bDe4C2E08ab1fA0da3401AdAD7734D",
    "10000000000000000",
    "0x79d3d8832d904592c0bf9818b621522c988bb8b0c05cdc3b15aea1b6e8db0c15",
    "5135",
    "500000",
    "30"
  ],
  "numDeployments": 1,
  "solcInputHash": "55350bb5ab922036093732a742a6bc51",
  "bytecode": "0x6101606040523480156200001257600080fd5b50604051620020e2380380620020e28339818101604052810190620000389190620004d8565b33806000888073ffffffffffffffffffffffffffffffffffffffff1660808173ffffffffffffffffffffffffffffffffffffffff168152505050600073ffffffffffffffffffffffffffffffffffffffff168273ffffffffffffffffffffffffffffffffffffffff1603620000e4576040517f08c379a0000000000000000000000000000000000000000000000000000000008152600401620000db90620005d5565b60405180910390fd5b816000806101000a81548173ffffffffffffffffffffffffffffffffffffffff021916908373ffffffffffffffffffffffffffffffffffffffff160217905550600073ffffffffffffffffffffffffffffffffffffffff168173ffffffffffffffffffffffffffffffffffffffff16146200016b576200016a816200024360201b60201c565b5b5050508460a081815250508573ffffffffffffffffffffffffffffffffffffffff1660c08173ffffffffffffffffffffffffffffffffffffffff16815250508360e081815250508267ffffffffffffffff166101008167ffffffffffffffff16815250508163ffffffff166101208163ffffffff168152505060006001811115620001fb57620001fa620005f7565b5b600360146101000a81548160ff02191690836001811115620002225762000221620005f7565b5b02179055504260048190555080610140818152505050505050505062000698565b3373ffffffffffffffffffffffffffffffffffffffff168173ffffffffffffffffffffffffffffffffffffffff1603620002b4576040517f08c379a0000000000000000000000000000000000000000000000000000000008152600401620002ab9062000676565b60405180910390fd5b80600160006101000a81548173ffffffffffffffffffffffffffffffffffffffff021916908373ffffffffffffffffffffffffffffffffffffffff1602179055508073ffffffffffffffffffffffffffffffffffffffff1660008054906101000a900473ffffffffffffffffffffffffffffffffffffffff1673ffffffffffffffffffffffffffffffffffffffff167fed8889f560326eb138920d842192f0eb3dd22b4f139c87a2c57538e05bae127860405160405180910390a350565b600080fd5b600073ffffffffffffffffffffffffffffffffffffffff82169050919050565b6000620003a48262000377565b9050919050565b620003b68162000397565b8114620003c257600080fd5b50565b600081519050620003d681620003ab565b92915050565b6000819050919050565b620003f181620003dc565b8114620003fd57600080fd5b50565b6000815190506200041181620003e6565b92915050565b6000819050919050565b6200042c8162000417565b81146200043857600080fd5b50565b6000815190506200044c8162000421565b92915050565b600067ffffffffffffffff82169050919050565b620004718162000452565b81146200047d57600080fd5b50565b600081519050620004918162000466565b92915050565b600063ffffffff82169050919050565b620004b28162000497565b8114620004be57600080fd5b50565b600081519050620004d281620004a7565b92915050565b60008060008060008060c08789031215620004f857620004f762000372565b5b60006200050889828a01620003c5565b96505060206200051b89828a0162000400565b95505060406200052e89828a016200043b565b94505060606200054189828a0162000480565b93505060806200055489828a01620004c1565b92505060a06200056789828a0162000400565b9150509295509295509295565b600082825260208201905092915050565b7f43616e6e6f7420736574206f776e657220746f207a65726f0000000000000000600082015250565b6000620005bd60188362000574565b9150620005ca8262000585565b602082019050919050565b60006020820190508181036000830152620005f081620005ae565b9050919050565b7f4e487b7100000000000000000000000000000000000000000000000000000000600052602160045260246000fd5b7f43616e6e6f74207472616e7366657220746f2073656c66000000000000000000600082015250565b60006200065e60178362000574565b91506200066b8262000626565b602082019050919050565b6000602082019050818103600083015262000691816200064f565b9050919050565b60805160a05160c05160e0516101005161012051610140516119e16200070160003960006106ed0152600061099e0152600061097b0152600061095a0152600061091e0152600081816104570152610a8101526000818161039701526103eb01526119e16000f3fe6080604052600436106100f35760003560e01c80636e04ff0d1161008a578063c542025011610059578063c5420250146102c2578063e55ae4e8146102ed578063f2fde38b1461032a578063fd6673f514610353576100f3565b80636e04ff0d1461022b57806379ba509714610269578063898da229146102805780638da5cb5b14610297576100f3565b80634585e33b116100c65780634585e33b14610181578063473f1ddc146101aa57806353a2c19a146101d55780635f1b0fd814610200576100f3565b8063115cbaf5146100f85780631fe543e3146101235780632cfcc5391461014c578063320229eb14610156575b600080fd5b34801561010457600080fd5b5061010d61037e565b60405161011a919061101b565b60405180910390f35b34801561012f57600080fd5b5061014a600480360381019061014591906111d9565b610395565b005b610154610455565b005b34801561016257600080fd5b5061016b6105c4565b6040516101789190611244565b60405180910390f35b34801561018d57600080fd5b506101a860048036038101906101a391906112ba565b6105ce565b005b3480156101b657600080fd5b506101bf610664565b6040516101cc9190611348565b60405180910390f35b3480156101e157600080fd5b506101ea61068e565b6040516101f79190611244565b60405180910390f35b34801561020c57600080fd5b5061021561069d565b6040516102229190611244565b60405180910390f35b34801561023757600080fd5b50610252600480360381019061024d9190611418565b6106aa565b6040516102609291906114fb565b60405180910390f35b34801561027557600080fd5b5061027e61075a565b005b34801561028c57600080fd5b506102956108ef565b005b3480156102a357600080fd5b506102ac610a54565b6040516102b99190611348565b60405180910390f35b3480156102ce57600080fd5b506102d7610a7d565b6040516102e49190611244565b60405180910390f35b3480156102f957600080fd5b50610314600480360381019061030f919061152b565b610aa5565b6040516103219190611348565b60405180910390f35b34801561033657600080fd5b50610351600480360381019061034c9190611584565b610aed565b005b34801561035f57600080fd5b50610368610b01565b6040516103759190611244565b60405180910390f35b6000600360149054906101000a900460ff16905090565b7f000000000000000000000000000000000000000000000000000000000000000073ffffffffffffffffffffffffffffffffffffffff163373ffffffffffffffffffffffffffffffffffffffff161461044757337f00000000000000000000000000000000000000000000000000000000000000006040517f1cf993f400000000000000000000000000000000000000000000000000000000815260040161043e9291906115b1565b60405180910390fd5b6104518282610b0e565b5050565b7f00000000000000000000000000000000000000000000000000000000000000003410156104af576040517f74938f2700000000000000000000000000000000000000000000000000000000815260040160405180910390fd5b600060018111156104c3576104c2610fa4565b5b600360149054906101000a900460ff1660018111156104e5576104e4610fa4565b5b1461051c576040517fd6e19a8d00000000000000000000000000000000000000000000000000000000815260040160405180910390fd5b6002339080600181540180825580915050600190039060005260206000200160009091909190916101000a81548173ffffffffffffffffffffffffffffffffffffffff021916908373ffffffffffffffffffffffffffffffffffffffff1602179055503373ffffffffffffffffffffffffffffffffffffffff167f0805e1d667bddb8a95f0f09880cf94f403fb596ce79928d9f29b74203ba284d460405160405180910390a2565b6000600454905090565b60006105e8604051806020016040528060008152506106aa565b509050806106575747600280549050600360149054906101000a900460ff16600181111561061957610618610fa4565b5b6040517fe059521b00000000000000000000000000000000000000000000000000000000815260040161064e939291906115da565b60405180910390fd5b61065f6108ef565b505050565b6000600360009054906101000a900473ffffffffffffffffffffffffffffffffffffffff16905090565b6000600163ffffffff16905090565b6000600361ffff16905090565b600060606000600360149054906101000a900460ff1660018111156106d2576106d1610fa4565b5b600060018111156106e6576106e5610fa4565b5b14905060007f00000000000000000000000000000000000000000000000000000000000000006004544261071a9190611640565b11905060008060028054905011905060008047119050600084801561073c5750835b80156107455750825b801561074e5750815b90505050505050915091565b600160009054906101000a900473ffffffffffffffffffffffffffffffffffffffff1673ffffffffffffffffffffffffffffffffffffffff163373ffffffffffffffffffffffffffffffffffffffff16146107ea576040517f08c379a00000000000000000000000000000000000000000000000000000000081526004016107e1906116d1565b60405180910390fd5b60008060009054906101000a900473ffffffffffffffffffffffffffffffffffffffff169050336000806101000a81548173ffffffffffffffffffffffffffffffffffffffff021916908373ffffffffffffffffffffffffffffffffffffffff1602179055506000600160006101000a81548173ffffffffffffffffffffffffffffffffffffffff021916908373ffffffffffffffffffffffffffffffffffffffff1602179055503373ffffffffffffffffffffffffffffffffffffffff168173ffffffffffffffffffffffffffffffffffffffff167f8be0079c531659141344cd1fd0a4f28419497f9722a3daafe3b4186f6b6457e060405160405180910390a350565b6001600360146101000a81548160ff0219169083600181111561091557610914610fa4565b5b021790555060007f000000000000000000000000000000000000000000000000000000000000000073ffffffffffffffffffffffffffffffffffffffff16635d3b1d307f00000000000000000000000000000000000000000000000000000000000000007f000000000000000000000000000000000000000000000000000000000000000060037f000000000000000000000000000000000000000000000000000000000000000060016040518663ffffffff1660e01b81526004016109df959493929190611769565b6020604051808303816000875af11580156109fe573d6000803e3d6000fd5b505050506040513d601f19601f82011682018060405250810190610a2291906117d1565b9050807fcd6e45c8998311cab7e9d4385596cac867e20a0587194b954fa3a731c93ce78b60405160405180910390a250565b60008060009054906101000a900473ffffffffffffffffffffffffffffffffffffffff16905090565b60007f0000000000000000000000000000000000000000000000000000000000000000905090565b600060028281548110610abb57610aba6117fe565b5b9060005260206000200160009054906101000a900473ffffffffffffffffffffffffffffffffffffffff169050919050565b610af5610d41565b610afe81610dd1565b50565b6000600280549050905090565b600060028054905082600081518110610b2a57610b296117fe565b5b6020026020010151610b3c919061185c565b9050600060028281548110610b5457610b536117fe565b5b9060005260206000200160009054906101000a900473ffffffffffffffffffffffffffffffffffffffff16905080600360006101000a81548173ffffffffffffffffffffffffffffffffffffffff021916908373ffffffffffffffffffffffffffffffffffffffff160217905550600067ffffffffffffffff811115610bdd57610bdc611096565b5b604051908082528060200260200182016040528015610c0b5781602001602082028036833780820191505090505b5060029080519060200190610c21929190610efd565b506000600360146101000a81548160ff02191690836001811115610c4857610c47610fa4565b5b02179055504260048190555060008173ffffffffffffffffffffffffffffffffffffffff1647604051610c7a906118be565b60006040518083038185875af1925050503d8060008114610cb7576040519150601f19603f3d011682016040523d82523d6000602084013e610cbc565b606091505b5050905080610cf7576040517fba31c4f300000000000000000000000000000000000000000000000000000000815260040160405180910390fd5b8173ffffffffffffffffffffffffffffffffffffffff167f5b690ec4a06fe979403046eaeea5b3ce38524683c3001f662c8b5a829632f7df60405160405180910390a25050505050565b60008054906101000a900473ffffffffffffffffffffffffffffffffffffffff1673ffffffffffffffffffffffffffffffffffffffff163373ffffffffffffffffffffffffffffffffffffffff1614610dcf576040517f08c379a0000000000000000000000000000000000000000000000000000000008152600401610dc69061191f565b60405180910390fd5b565b3373ffffffffffffffffffffffffffffffffffffffff168173ffffffffffffffffffffffffffffffffffffffff1603610e3f576040517f08c379a0000000000000000000000000000000000000000000000000000000008152600401610e369061198b565b60405180910390fd5b80600160006101000a81548173ffffffffffffffffffffffffffffffffffffffff021916908373ffffffffffffffffffffffffffffffffffffffff1602179055508073ffffffffffffffffffffffffffffffffffffffff1660008054906101000a900473ffffffffffffffffffffffffffffffffffffffff1673ffffffffffffffffffffffffffffffffffffffff167fed8889f560326eb138920d842192f0eb3dd22b4f139c87a2c57538e05bae127860405160405180910390a350565b828054828255906000526020600020908101928215610f76579160200282015b82811115610f755782518260006101000a81548173ffffffffffffffffffffffffffffffffffffffff021916908373ffffffffffffffffffffffffffffffffffffffff16021790555091602001919060010190610f1d565b5b509050610f839190610f87565b5090565b5b80821115610fa0576000816000905550600101610f88565b5090565b7f4e487b7100000000000000000000000000000000000000000000000000000000600052602160045260246000fd5b60028110610fe457610fe3610fa4565b5b50565b6000819050610ff582610fd3565b919050565b600061100582610fe7565b9050919050565b61101581610ffa565b82525050565b6000602082019050611030600083018461100c565b92915050565b6000604051905090565b600080fd5b600080fd5b6000819050919050565b61105d8161104a565b811461106857600080fd5b50565b60008135905061107a81611054565b92915050565b600080fd5b6000601f19601f8301169050919050565b7f4e487b7100000000000000000000000000000000000000000000000000000000600052604160045260246000fd5b6110ce82611085565b810181811067ffffffffffffffff821117156110ed576110ec611096565b5b80604052505050565b6000611100611036565b905061110c82826110c5565b919050565b600067ffffffffffffffff82111561112c5761112b611096565b5b602082029050602081019050919050565b600080fd5b600061115561115084611111565b6110f6565b905080838252602082019050602084028301858111156111785761117761113d565b5b835b818110156111a1578061118d888261106b565b84526020840193505060208101905061117a565b5050509392505050565b600082601f8301126111c0576111bf611080565b5b81356111d0848260208601611142565b91505092915050565b600080604083850312156111f0576111ef611040565b5b60006111fe8582860161106b565b925050602083013567ffffffffffffffff81111561121f5761121e611045565b5b61122b858286016111ab565b9150509250929050565b61123e8161104a565b82525050565b60006020820190506112596000830184611235565b92915050565b600080fd5b60008083601f84011261127a57611279611080565b5b8235905067ffffffffffffffff8111156112975761129661125f565b5b6020830191508360018202830111156112b3576112b261113d565b5b9250929050565b600080602083850312156112d1576112d0611040565b5b600083013567ffffffffffffffff8111156112ef576112ee611045565b5b6112fb85828601611264565b92509250509250929050565b600073ffffffffffffffffffffffffffffffffffffffff82169050919050565b600061133282611307565b9050919050565b61134281611327565b82525050565b600060208201905061135d6000830184611339565b92915050565b600080fd5b600067ffffffffffffffff82111561138357611382611096565b5b61138c82611085565b9050602081019050919050565b82818337600083830152505050565b60006113bb6113b684611368565b6110f6565b9050828152602081018484840111156113d7576113d6611363565b5b6113e2848285611399565b509392505050565b600082601f8301126113ff576113fe611080565b5b813561140f8482602086016113a8565b91505092915050565b60006020828403121561142e5761142d611040565b5b600082013567ffffffffffffffff81111561144c5761144b611045565b5b611458848285016113ea565b91505092915050565b60008115159050919050565b61147681611461565b82525050565b600081519050919050565b600082825260208201905092915050565b60005b838110156114b657808201518184015260208101905061149b565b60008484015250505050565b60006114cd8261147c565b6114d78185611487565b93506114e7818560208601611498565b6114f081611085565b840191505092915050565b6000604082019050611510600083018561146d565b818103602083015261152281846114c2565b90509392505050565b60006020828403121561154157611540611040565b5b600061154f8482850161106b565b91505092915050565b61156181611327565b811461156c57600080fd5b50565b60008135905061157e81611558565b92915050565b60006020828403121561159a57611599611040565b5b60006115a88482850161156f565b91505092915050565b60006040820190506115c66000830185611339565b6115d36020830184611339565b9392505050565b60006060820190506115ef6000830186611235565b6115fc6020830185611235565b6116096040830184611235565b949350505050565b7f4e487b7100000000000000000000000000000000000000000000000000000000600052601160045260246000fd5b600061164b8261104a565b91506116568361104a565b925082820390508181111561166e5761166d611611565b5b92915050565b600082825260208201905092915050565b7f4d7573742062652070726f706f736564206f776e657200000000000000000000600082015250565b60006116bb601683611674565b91506116c682611685565b602082019050919050565b600060208201905081810360008301526116ea816116ae565b9050919050565b6000819050919050565b611704816116f1565b82525050565b600067ffffffffffffffff82169050919050565b6117278161170a565b82525050565b600061ffff82169050919050565b6117448161172d565b82525050565b600063ffffffff82169050919050565b6117638161174a565b82525050565b600060a08201905061177e60008301886116fb565b61178b602083018761171e565b611798604083018661173b565b6117a5606083018561175a565b6117b2608083018461175a565b9695505050505050565b6000815190506117cb81611054565b92915050565b6000602082840312156117e7576117e6611040565b5b60006117f5848285016117bc565b91505092915050565b7f4e487b7100000000000000000000000000000000000000000000000000000000600052603260045260246000fd5b7f4e487b7100000000000000000000000000000000000000000000000000000000600052601260045260246000fd5b60006118678261104a565b91506118728361104a565b9250826118825761188161182d565b5b828206905092915050565b600081905092915050565b50565b60006118a860008361188d565b91506118b382611898565b600082019050919050565b60006118c98261189b565b9150819050919050565b7f4f6e6c792063616c6c61626c65206279206f776e657200000000000000000000600082015250565b6000611909601683611674565b9150611914826118d3565b602082019050919050565b60006020820190508181036000830152611938816118fc565b9050919050565b7f43616e6e6f74207472616e7366657220746f2073656c66000000000000000000600082015250565b6000611975601783611674565b91506119808261193f565b602082019050919050565b600060208201905081810360008301526119a481611968565b905091905056fea264697066735822122097def06c0c47aa4cc1f0ea89013a8676fc3e78fecfb8501bb469a4907781b9ae64736f6c63430008110033",
  "devdoc": {
    "author": "Surya",
    "details": "This implements chainlink VRF V2 and Keepers",
    "kind": "dev",
    "methods": {
      "checkUpkeep(bytes)": {
        "details": "This is the function that the Chainlink Keeper nodes call to check if the contract needs to be called."
      },
      "performUpkeep(bytes)": {
        "details": "The input to this method should not be trusted, and the caller of the method should not even be restricted to any single registry. Anyone should be able call it, and the input should be validated, there is no guarantee that the data passed in is the performData returned from checkUpkeep. This could happen due to malicious keepers, racing keepers, or simply a state change while the performUpkeep transaction is waiting for confirmation. Always validate the data passed in.",
        "params": {
          "performData": "is the data which was passed back from the checkData simulation. If it is encoded, it can easily be decoded into other types by calling `abi.decode`. This data should not be trusted, and should be validated against the contract's current state."
        }
      }
    },
    "title": "A sample Raffle contract",
    "version": 1
  },
  "userdoc": {
    "kind": "user",
    "methods": {
      "acceptOwnership()": {
        "notice": "Allows an ownership transfer to be completed by the recipient."
      },
      "owner()": {
        "notice": "Get the current owner"
      },
      "performUpkeep(bytes)": {
        "notice": "method that is actually executed by the keepers, via the registry. The data returned by the checkUpkeep simulation will be passed into this method to actually be executed."
      },
      "transferOwnership(address)": {
        "notice": "Allows an owner to begin transferring ownership to a new address, pending."
      }
    },
    "notice": "This contract is for creating an untamperable decentralized smart contract",
    "version": 1
  },
  "storageLayout": {
    "storage": [
      {
        "astId": 66,
        "contract": "contracts/Raffle.sol:Raffle",
        "label": "s_owner",
        "offset": 0,
        "slot": "0",
        "type": "t_address"
      },
      {
        "astId": 68,
        "contract": "contracts/Raffle.sol:Raffle",
        "label": "s_pendingOwner",
        "offset": 0,
        "slot": "1",
        "type": "t_address"
      },
      {
        "astId": 1402,
        "contract": "contracts/Raffle.sol:Raffle",
        "label": "s_players",
        "offset": 0,
        "slot": "2",
        "type": "t_array(t_address_payable)dyn_storage"
      },
      {
        "astId": 1419,
        "contract": "contracts/Raffle.sol:Raffle",
        "label": "s_recentWinner",
        "offset": 0,
        "slot": "3",
        "type": "t_address"
      },
      {
        "astId": 1422,
        "contract": "contracts/Raffle.sol:Raffle",
        "label": "s_state",
        "offset": 20,
        "slot": "3",
        "type": "t_enum(RaffleState)1397"
      },
      {
        "astId": 1424,
        "contract": "contracts/Raffle.sol:Raffle",
        "label": "s_lastTimeStamp",
        "offset": 0,
        "slot": "4",
        "type": "t_uint256"
      }
    ],
    "types": {
      "t_address": {
        "encoding": "inplace",
        "label": "address",
        "numberOfBytes": "20"
      },
      "t_address_payable": {
        "encoding": "inplace",
        "label": "address payable",
        "numberOfBytes": "20"
      },
      "t_array(t_address_payable)dyn_storage": {
        "base": "t_address_payable",
        "encoding": "dynamic_array",
        "label": "address payable[]",
        "numberOfBytes": "32"
      },
      "t_enum(RaffleState)1397": {
        "encoding": "inplace",
        "label": "enum Raffle.RaffleState",
        "numberOfBytes": "1"
      },
      "t_uint256": {
        "encoding": "inplace",
        "label": "uint256",
        "numberOfBytes": "32"
      }
    }
  }
}